{
  "contractName": "CrossChainTransfer",
  "abi": [
    {
      "inputs": [
        {
          "internalType": "address",
          "name": "usdtContract",
          "type": "address"
        }
      ],
      "stateMutability": "payable",
      "type": "constructor"
    },
    {
      "anonymous": false,
      "inputs": [
        {
          "indexed": true,
          "internalType": "bytes",
          "name": "transactionId",
          "type": "bytes"
        },
        {
          "indexed": true,
          "internalType": "bytes",
          "name": "fromAddress",
          "type": "bytes"
        },
        {
          "indexed": true,
          "internalType": "bytes",
          "name": "toAddress",
          "type": "bytes"
        },
        {
          "indexed": false,
          "internalType": "uint128",
          "name": "amount",
          "type": "uint128"
        }
      ],
      "name": "CommitCreated",
      "type": "event"
    },
    {
      "anonymous": false,
      "inputs": [
        {
          "indexed": true,
          "internalType": "bytes",
          "name": "transactionId",
          "type": "bytes"
        },
        {
          "indexed": true,
          "internalType": "bytes",
          "name": "fromAddress",
          "type": "bytes"
        },
        {
          "indexed": true,
          "internalType": "bytes",
          "name": "toAddress",
          "type": "bytes"
        },
        {
          "indexed": false,
          "internalType": "uint128",
          "name": "amount",
          "type": "uint128"
        }
      ],
      "name": "TransferCompleted",
      "type": "event"
    },
    {
      "inputs": [],
      "name": "ROLE_CONTROLLER",
      "outputs": [
        {
          "internalType": "string",
          "name": "",
          "type": "string"
        }
      ],
      "stateMutability": "view",
      "type": "function"
    },
    {
      "inputs": [],
      "name": "admin",
      "outputs": [
        {
          "internalType": "address",
          "name": "",
          "type": "address"
        }
      ],
      "stateMutability": "view",
      "type": "function"
    },
    {
      "inputs": [],
      "name": "controller",
      "outputs": [
        {
          "internalType": "address",
          "name": "",
          "type": "address"
        }
      ],
      "stateMutability": "view",
      "type": "function"
    },
    {
      "inputs": [],
      "name": "incomingAdmin",
      "outputs": [
        {
          "internalType": "address",
          "name": "",
          "type": "address"
        }
      ],
      "stateMutability": "view",
      "type": "function"
    },
    {
      "inputs": [
        {
          "internalType": "bytes",
          "name": "",
          "type": "bytes"
        }
      ],
      "name": "transactions",
      "outputs": [
        {
          "internalType": "enum CrossChainTransfer.TransactionType",
          "name": "transactionType",
          "type": "uint8"
        },
        {
          "internalType": "enum CrossChainTransfer.Chain",
          "name": "fromChain",
          "type": "uint8"
        },
        {
          "components": [
            {
              "internalType": "enum CrossChainTransfer.Chain",
              "name": "Chain",
              "type": "uint8"
            },
            {
              "internalType": "bytes",
              "name": "userAddress",
              "type": "bytes"
            }
          ],
          "internalType": "struct CrossChainTransfer.AddressType",
          "name": "fromAddress",
          "type": "tuple"
        },
        {
          "components": [
            {
              "internalType": "enum CrossChainTransfer.Chain",
              "name": "Chain",
              "type": "uint8"
            },
            {
              "internalType": "bytes",
              "name": "userAddress",
              "type": "bytes"
            }
          ],
          "internalType": "struct CrossChainTransfer.AddressType",
          "name": "toAddress",
          "type": "tuple"
        },
        {
          "internalType": "uint128",
          "name": "amount",
          "type": "uint128"
        },
        {
          "internalType": "uint256",
          "name": "timestamp",
          "type": "uint256"
        }
      ],
      "stateMutability": "view",
      "type": "function"
    },
    {
      "inputs": [],
      "name": "usdtContractAddress",
      "outputs": [
        {
          "internalType": "contract ITRC20",
          "name": "",
          "type": "address"
        }
      ],
      "stateMutability": "view",
      "type": "function"
    },
    {
      "inputs": [
        {
          "internalType": "address",
          "name": "",
          "type": "address"
        }
      ],
      "name": "userTransactionNonce",
      "outputs": [
        {
          "internalType": "uint64",
          "name": "",
          "type": "uint64"
        }
      ],
      "stateMutability": "view",
      "type": "function"
    },
    {
      "inputs": [
        {
          "internalType": "address",
          "name": "userAddress",
          "type": "address"
        }
      ],
      "name": "getCurrentNonce",
      "outputs": [
        {
          "internalType": "uint64",
          "name": "",
          "type": "uint64"
        }
      ],
      "stateMutability": "view",
      "type": "function"
    },
    {
      "inputs": [
        {
          "internalType": "bytes",
          "name": "transactionId",
          "type": "bytes"
        },
        {
          "internalType": "bytes",
          "name": "fromAddress",
          "type": "bytes"
        },
        {
          "internalType": "bytes",
          "name": "toAddress",
          "type": "bytes"
        },
        {
          "internalType": "uint128",
          "name": "amount",
          "type": "uint128"
        }
      ],
      "name": "createCommitTransaction",
      "outputs": [],
      "stateMutability": "nonpayable",
      "type": "function"
    },
    {
      "inputs": [
        {
          "internalType": "bytes",
          "name": "transactionId",
          "type": "bytes"
        },
        {
          "internalType": "bytes",
          "name": "fromAddress",
          "type": "bytes"
        },
        {
          "internalType": "bytes",
          "name": "toAddress",
          "type": "bytes"
        },
        {
          "internalType": "uint128",
          "name": "amount",
          "type": "uint128"
        }
      ],
      "name": "createTransferTransaction",
      "outputs": [],
      "stateMutability": "nonpayable",
      "type": "function"
    },
    {
      "inputs": [
        {
          "internalType": "bytes",
          "name": "b",
          "type": "bytes"
        }
      ],
      "name": "dynamicBytesToAddress",
      "outputs": [
        {
          "internalType": "address",
          "name": "",
          "type": "address"
        }
      ],
      "stateMutability": "pure",
      "type": "function"
    },
    {
      "inputs": [
        {
          "internalType": "uint256",
          "name": "amount",
          "type": "uint256"
        }
      ],
      "name": "checkAllowance",
      "outputs": [],
      "stateMutability": "view",
      "type": "function"
    },
    {
      "inputs": [
        {
          "internalType": "uint256",
          "name": "amount",
          "type": "uint256"
        }
      ],
      "name": "checkBalance",
      "outputs": [],
      "stateMutability": "view",
      "type": "function"
    },
    {
      "inputs": [
        {
          "internalType": "address",
          "name": "newController",
          "type": "address"
        }
      ],
      "name": "changeController",
      "outputs": [],
      "stateMutability": "nonpayable",
      "type": "function"
    },
    {
      "inputs": [],
      "name": "pauseContract",
      "outputs": [],
      "stateMutability": "nonpayable",
      "type": "function"
    },
    {
      "inputs": [],
      "name": "unpauseContract",
      "outputs": [],
      "stateMutability": "nonpayable",
      "type": "function"
    }
  ],
  "bytecode": "0x608060405260405162002b1138038062002b1183398181016040528101906200002991906200012e565b3360035f6101000a81548173ffffffffffffffffffffffffffffffffffffffff021916908373ffffffffffffffffffffffffffffffffffffffff1602179055508060045f6101000a81548173ffffffffffffffffffffffffffffffffffffffff021916908373ffffffffffffffffffffffffffffffffffffffff1602179055505f60065f6101000a81548160ff021916908315150217905550506200015e565b5f80fd5b5f73ffffffffffffffffffffffffffffffffffffffff82169050919050565b5f620000f882620000cd565b9050919050565b6200010a81620000ec565b811462000115575f80fd5b50565b5f815190506200012881620000ff565b92915050565b5f60208284031215620001465762000145620000c9565b5b5f620001558482850162000118565b91505092915050565b6129a5806200016c5f395ff3fe608060405234801561000f575f80fd5b50600436106100fe575f3560e01c8063a86de69411610095578063d11fdca711610064578063d11fdca714610270578063f77c47911461028c578063f84c2392146102aa578063f851a440146102df576100fe565b8063a86de694146101fe578063b33712c51461021a578063b91b406214610224578063cfd71fc514610254576100fe565b80635b4df1ca116100d15780635b4df1ca1461017657806379192251146101945780637f286286146101c45780639ffe49d9146101e0576100fe565b80631739c15514610102578063388c54de146101325780633cebb82314610150578063439766ce1461016c575b5f80fd5b61011c600480360381019061011791906119f4565b6102fd565b6040516101299190611a41565b60405180910390f35b61013a610320565b6040516101479190611ab5565b60405180910390f35b61016a600480360381019061016591906119f4565b610345565b005b610174610419565b005b61017e6104c6565b60405161018b9190611b58565b60405180910390f35b6101ae60048036038101906101a991906119f4565b6104ff565b6040516101bb9190611a41565b60405180910390f35b6101de60048036038101906101d99190611bab565b610557565b005b6101e861063a565b6040516101f59190611be5565b60405180910390f35b61021860048036038101906102139190611bab565b61065f565b005b610222610744565b005b61023e60048036038101906102399190611d2a565b6107f0565b60405161024b9190611be5565b60405180910390f35b61026e60048036038101906102699190611e13565b61084d565b005b61028a60048036038101906102859190611e13565b610e55565b005b61029461144b565b6040516102a19190611be5565b60405180910390f35b6102c460048036038101906102bf9190611d2a565b611470565b6040516102d696959493929190612049565b60405180910390f35b6102e7611699565b6040516102f49190611be5565b60405180910390f35b5f602052805f5260405f205f915054906101000a900467ffffffffffffffff1681565b60045f9054906101000a900473ffffffffffffffffffffffffffffffffffffffff1681565b60015f9054906101000a900473ffffffffffffffffffffffffffffffffffffffff168073ffffffffffffffffffffffffffffffffffffffff163373ffffffffffffffffffffffffffffffffffffffff16146103d5576040517f08c379a00000000000000000000000000000000000000000000000000000000081526004016103cc90612100565b60405180910390fd5b8160035f6101000a81548173ffffffffffffffffffffffffffffffffffffffff021916908373ffffffffffffffffffffffffffffffffffffffff1602179055505050565b60015f9054906101000a900473ffffffffffffffffffffffffffffffffffffffff168073ffffffffffffffffffffffffffffffffffffffff163373ffffffffffffffffffffffffffffffffffffffff16146104a9576040517f08c379a00000000000000000000000000000000000000000000000000000000081526004016104a090612100565b60405180910390fd5b600160065f6101000a81548160ff02191690831515021790555050565b6040518060400160405280600a81526020017f636f6e74726f6c6c65720000000000000000000000000000000000000000000081525081565b5f805f8373ffffffffffffffffffffffffffffffffffffffff1673ffffffffffffffffffffffffffffffffffffffff1681526020019081526020015f205f9054906101000a900467ffffffffffffffff169050919050565b5f60045f9054906101000a900473ffffffffffffffffffffffffffffffffffffffff1673ffffffffffffffffffffffffffffffffffffffff166370a08231336040518263ffffffff1660e01b81526004016105b29190611be5565b602060405180830381865afa1580156105cd573d5f803e3d5ffd5b505050506040513d601f19601f820116820180604052508101906105f19190612132565b905080821015610636576040517f08c379a000000000000000000000000000000000000000000000000000000000815260040161062d906121a7565b60405180910390fd5b5050565b60025f9054906101000a900473ffffffffffffffffffffffffffffffffffffffff1681565b5f60045f9054906101000a900473ffffffffffffffffffffffffffffffffffffffff1673ffffffffffffffffffffffffffffffffffffffff1663dd62ed3e33306040518363ffffffff1660e01b81526004016106bc9291906121c5565b602060405180830381865afa1580156106d7573d5f803e3d5ffd5b505050506040513d601f19601f820116820180604052508101906106fb9190612132565b905080821015610740576040517f08c379a000000000000000000000000000000000000000000000000000000000815260040161073790612236565b60405180910390fd5b5050565b60015f9054906101000a900473ffffffffffffffffffffffffffffffffffffffff168073ffffffffffffffffffffffffffffffffffffffff163373ffffffffffffffffffffffffffffffffffffffff16146107d4576040517f08c379a00000000000000000000000000000000000000000000000000000000081526004016107cb90612100565b60405180910390fd5b5f60065f6101000a81548160ff02191690831515021790555050565b5f601482511015610836576040517f08c379a000000000000000000000000000000000000000000000000000000000815260040161082d9061229e565b60405180910390fd5b5f6014835103602001830151905080915050919050565b60065f9054906101000a900460ff161561089c576040517f08c379a000000000000000000000000000000000000000000000000000000000815260040161089390612306565b60405180910390fd5b60035f9054906101000a900473ffffffffffffffffffffffffffffffffffffffff168073ffffffffffffffffffffffffffffffffffffffff163373ffffffffffffffffffffffffffffffffffffffff161461092c576040517f08c379a000000000000000000000000000000000000000000000000000000000815260040161092390612100565b60405180910390fd5b61093688886116be565b5f803373ffffffffffffffffffffffffffffffffffffffff1673ffffffffffffffffffffffffffffffffffffffff1681526020019081526020015f205f9054906101000a900467ffffffffffffffff1667ffffffffffffffff1660015f803373ffffffffffffffffffffffffffffffffffffffff1673ffffffffffffffffffffffffffffffffffffffff1681526020019081526020015f205f9054906101000a900467ffffffffffffffff166109ec9190612351565b67ffffffffffffffff1611610a36576040517f08c379a0000000000000000000000000000000000000000000000000000000008152600401610a2d906123d6565b60405180910390fd5b610a438686868686611727565b6040518060c001604052805f6001811115610a6157610a60611ed7565b5b8152602001600180811115610a7957610a78611ed7565b5b81526020016040518060400160405280600180811115610a9c57610a9b611ed7565b5b815260200189898080601f0160208091040260200160405190810160405280939291908181526020018383808284375f81840152601f19601f82011690508083019250505050505050815250815260200160405180604001604052805f6001811115610b0b57610b0a611ed7565b5b815260200187878080601f0160208091040260200160405190810160405280939291908181526020018383808284375f81840152601f19601f820116905080830192505050505050508152508152602001836fffffffffffffffffffffffffffffffff1681526020014281525060058989604051610b8a929190612422565b90815260200160405180910390205f820151815f015f6101000a81548160ff02191690836001811115610bc057610bbf611ed7565b5b02179055506020820151815f0160016101000a81548160ff02191690836001811115610bef57610bee611ed7565b5b02179055506040820151816001015f820151815f015f6101000a81548160ff02191690836001811115610c2557610c24611ed7565b5b02179055506020820151816001019081610c3f919061262b565b5050506060820151816003015f820151815f015f6101000a81548160ff02191690836001811115610c7357610c72611ed7565b5b02179055506020820151816001019081610c8d919061262b565b5050506080820151816005015f6101000a8154816fffffffffffffffffffffffffffffffff02191690836fffffffffffffffffffffffffffffffff16021790555060a082015181600601559050505f610d2887878080601f0160208091040260200160405190810160405280939291908181526020018383808284375f81840152601f19601f820116905080830192505050505050506107f0565b9050610d4681846fffffffffffffffffffffffffffffffff16611845565b60015f803373ffffffffffffffffffffffffffffffffffffffff1673ffffffffffffffffffffffffffffffffffffffff1681526020019081526020015f205f8282829054906101000a900467ffffffffffffffff16610da59190612351565b92506101000a81548167ffffffffffffffff021916908367ffffffffffffffff1602179055508484604051610ddb929190612422565b60405180910390208787604051610df3929190612422565b60405180910390208a8a604051610e0b929190612422565b60405180910390207fb435d6b5639beacfc216b2a32bb727babf62d06d9ab0fa5d4b73ba1f747864a286604051610e4291906126fa565b60405180910390a4505050505050505050565b60065f9054906101000a900460ff1615610ea4576040517f08c379a0000000000000000000000000000000000000000000000000000000008152600401610e9b90612306565b60405180910390fd5b60035f9054906101000a900473ffffffffffffffffffffffffffffffffffffffff168073ffffffffffffffffffffffffffffffffffffffff163373ffffffffffffffffffffffffffffffffffffffff1614610f34576040517f08c379a0000000000000000000000000000000000000000000000000000000008152600401610f2b90612100565b60405180910390fd5b610f3e88886116be565b5f803373ffffffffffffffffffffffffffffffffffffffff1673ffffffffffffffffffffffffffffffffffffffff1681526020019081526020015f205f9054906101000a900467ffffffffffffffff1667ffffffffffffffff1660015f803373ffffffffffffffffffffffffffffffffffffffff1673ffffffffffffffffffffffffffffffffffffffff1681526020019081526020015f205f9054906101000a900467ffffffffffffffff16610ff49190612351565b67ffffffffffffffff161161103e576040517f08c379a0000000000000000000000000000000000000000000000000000000008152600401611035906123d6565b60405180910390fd5b6040518060c0016040528060018081111561105c5761105b611ed7565b5b815260200160018081111561107457611073611ed7565b5b8152602001604051806040016040528060018081111561109757611096611ed7565b5b815260200189898080601f0160208091040260200160405190810160405280939291908181526020018383808284375f81840152601f19601f82011690508083019250505050505050815250815260200160405180604001604052805f600181111561110657611105611ed7565b5b815260200187878080601f0160208091040260200160405190810160405280939291908181526020018383808284375f81840152601f19601f820116905080830192505050505050508152508152602001836fffffffffffffffffffffffffffffffff1681526020014281525060058989604051611185929190612422565b90815260200160405180910390205f820151815f015f6101000a81548160ff021916908360018111156111bb576111ba611ed7565b5b02179055506020820151815f0160016101000a81548160ff021916908360018111156111ea576111e9611ed7565b5b02179055506040820151816001015f820151815f015f6101000a81548160ff021916908360018111156112205761121f611ed7565b5b0217905550602082015181600101908161123a919061262b565b5050506060820151816003015f820151815f015f6101000a81548160ff0219169083600181111561126e5761126d611ed7565b5b02179055506020820151816001019081611288919061262b565b5050506080820151816005015f6101000a8154816fffffffffffffffffffffffffffffffff02191690836fffffffffffffffffffffffffffffffff16021790555060a0820151816006015590505061133d61132585858080601f0160208091040260200160405190810160405280939291908181526020018383808284375f81840152601f19601f820116905080830192505050505050506107f0565b836fffffffffffffffffffffffffffffffff166118e8565b60015f803373ffffffffffffffffffffffffffffffffffffffff1673ffffffffffffffffffffffffffffffffffffffff1681526020019081526020015f205f8282829054906101000a900467ffffffffffffffff1661139c9190612351565b92506101000a81548167ffffffffffffffff021916908367ffffffffffffffff16021790555083836040516113d2929190612422565b604051809103902086866040516113ea929190612422565b60405180910390208989604051611402929190612422565b60405180910390207fbd131b3c644889d242311d24e04cda95c3cb6b5a0409dd9f8e62cc2cc395c3c18560405161143991906126fa565b60405180910390a45050505050505050565b60035f9054906101000a900473ffffffffffffffffffffffffffffffffffffffff1681565b6005818051602081018201805184825260208301602085012081835280955050505050505f91509050805f015f9054906101000a900460ff1690805f0160019054906101000a900460ff1690806001016040518060400160405290815f82015f9054906101000a900460ff1660018111156114ee576114ed611ed7565b5b6001811115611500576114ff611ed7565b5b815260200160018201805461151490612467565b80601f016020809104026020016040519081016040528092919081815260200182805461154090612467565b801561158b5780601f106115625761010080835404028352916020019161158b565b820191905f5260205f20905b81548152906001019060200180831161156e57829003601f168201915b50505050508152505090806003016040518060400160405290815f82015f9054906101000a900460ff1660018111156115c7576115c6611ed7565b5b60018111156115d9576115d8611ed7565b5b81526020016001820180546115ed90612467565b80601f016020809104026020016040519081016040528092919081815260200182805461161990612467565b80156116645780601f1061163b57610100808354040283529160200191611664565b820191905f5260205f20905b81548152906001019060200180831161164757829003601f168201915b50505050508152505090806005015f9054906101000a90046fffffffffffffffffffffffffffffffff16908060060154905086565b60015f9054906101000a900473ffffffffffffffffffffffffffffffffffffffff1681565b5f600583836040516116d1929190612422565b90815260200160405180910390206006015414611723576040517f08c379a000000000000000000000000000000000000000000000000000000000815260040161171a9061275d565b60405180910390fd5b5050565b5f816fffffffffffffffffffffffffffffffff161161177b576040517f08c379a0000000000000000000000000000000000000000000000000000000008152600401611772906127c5565b60405180910390fd5b60148585905010156117c2576040517f08c379a00000000000000000000000000000000000000000000000000000000081526004016117b99061282d565b60405180910390fd5b60208383905014611808576040517f08c379a00000000000000000000000000000000000000000000000000000000081526004016117ff90612895565b60405180910390fd5b611823816fffffffffffffffffffffffffffffffff1661065f565b61183e816fffffffffffffffffffffffffffffffff16610557565b5050505050565b60045f9054906101000a900473ffffffffffffffffffffffffffffffffffffffff1673ffffffffffffffffffffffffffffffffffffffff166323b872dd8330846040518463ffffffff1660e01b81526004016118a3939291906128b3565b6020604051808303815f875af11580156118bf573d5f803e3d5ffd5b505050506040513d601f19601f820116820180604052508101906118e3919061291d565b505050565b60045f9054906101000a900473ffffffffffffffffffffffffffffffffffffffff1673ffffffffffffffffffffffffffffffffffffffff1663a9059cbb83836040518363ffffffff1660e01b8152600401611944929190612948565b6020604051808303815f875af1158015611960573d5f803e3d5ffd5b505050506040513d601f19601f82011682018060405250810190611984919061291d565b505050565b5f604051905090565b5f80fd5b5f80fd5b5f73ffffffffffffffffffffffffffffffffffffffff82169050919050565b5f6119c38261199a565b9050919050565b6119d3816119b9565b81146119dd575f80fd5b50565b5f813590506119ee816119ca565b92915050565b5f60208284031215611a0957611a08611992565b5b5f611a16848285016119e0565b91505092915050565b5f67ffffffffffffffff82169050919050565b611a3b81611a1f565b82525050565b5f602082019050611a545f830184611a32565b92915050565b5f819050919050565b5f611a7d611a78611a738461199a565b611a5a565b61199a565b9050919050565b5f611a8e82611a63565b9050919050565b5f611a9f82611a84565b9050919050565b611aaf81611a95565b82525050565b5f602082019050611ac85f830184611aa6565b92915050565b5f81519050919050565b5f82825260208201905092915050565b5f5b83811015611b05578082015181840152602081019050611aea565b5f8484015250505050565b5f601f19601f8301169050919050565b5f611b2a82611ace565b611b348185611ad8565b9350611b44818560208601611ae8565b611b4d81611b10565b840191505092915050565b5f6020820190508181035f830152611b708184611b20565b905092915050565b5f819050919050565b611b8a81611b78565b8114611b94575f80fd5b50565b5f81359050611ba581611b81565b92915050565b5f60208284031215611bc057611bbf611992565b5b5f611bcd84828501611b97565b91505092915050565b611bdf816119b9565b82525050565b5f602082019050611bf85f830184611bd6565b92915050565b5f80fd5b5f80fd5b7f4e487b71000000000000000000000000000000000000000000000000000000005f52604160045260245ffd5b611c3c82611b10565b810181811067ffffffffffffffff82111715611c5b57611c5a611c06565b5b80604052505050565b5f611c6d611989565b9050611c798282611c33565b919050565b5f67ffffffffffffffff821115611c9857611c97611c06565b5b611ca182611b10565b9050602081019050919050565b828183375f83830152505050565b5f611cce611cc984611c7e565b611c64565b905082815260208101848484011115611cea57611ce9611c02565b5b611cf5848285611cae565b509392505050565b5f82601f830112611d1157611d10611bfe565b5b8135611d21848260208601611cbc565b91505092915050565b5f60208284031215611d3f57611d3e611992565b5b5f82013567ffffffffffffffff811115611d5c57611d5b611996565b5b611d6884828501611cfd565b91505092915050565b5f80fd5b5f80fd5b5f8083601f840112611d8e57611d8d611bfe565b5b8235905067ffffffffffffffff811115611dab57611daa611d71565b5b602083019150836001820283011115611dc757611dc6611d75565b5b9250929050565b5f6fffffffffffffffffffffffffffffffff82169050919050565b611df281611dce565b8114611dfc575f80fd5b50565b5f81359050611e0d81611de9565b92915050565b5f805f805f805f6080888a031215611e2e57611e2d611992565b5b5f88013567ffffffffffffffff811115611e4b57611e4a611996565b5b611e578a828b01611d79565b9750975050602088013567ffffffffffffffff811115611e7a57611e79611996565b5b611e868a828b01611d79565b9550955050604088013567ffffffffffffffff811115611ea957611ea8611996565b5b611eb58a828b01611d79565b93509350506060611ec88a828b01611dff565b91505092959891949750929550565b7f4e487b71000000000000000000000000000000000000000000000000000000005f52602160045260245ffd5b60028110611f1557611f14611ed7565b5b50565b5f819050611f2582611f04565b919050565b5f611f3482611f18565b9050919050565b611f4481611f2a565b82525050565b60028110611f5b57611f5a611ed7565b5b50565b5f819050611f6b82611f4a565b919050565b5f611f7a82611f5e565b9050919050565b611f8a81611f70565b82525050565b611f9981611f70565b82525050565b5f81519050919050565b5f82825260208201905092915050565b5f611fc382611f9f565b611fcd8185611fa9565b9350611fdd818560208601611ae8565b611fe681611b10565b840191505092915050565b5f604083015f8301516120065f860182611f90565b506020830151848203602086015261201e8282611fb9565b9150508091505092915050565b61203481611dce565b82525050565b61204381611b78565b82525050565b5f60c08201905061205c5f830189611f3b565b6120696020830188611f81565b818103604083015261207b8187611ff1565b9050818103606083015261208f8186611ff1565b905061209e608083018561202b565b6120ab60a083018461203a565b979650505050505050565b7f4e6f742043616c6c61626c6520627920557365720000000000000000000000005f82015250565b5f6120ea601483611ad8565b91506120f5826120b6565b602082019050919050565b5f6020820190508181035f830152612117816120de565b9050919050565b5f8151905061212c81611b81565b92915050565b5f6020828403121561214757612146611992565b5b5f6121548482850161211e565b91505092915050565b7f496e73756666696369656e742042616c616e63650000000000000000000000005f82015250565b5f612191601483611ad8565b915061219c8261215d565b602082019050919050565b5f6020820190508181035f8301526121be81612185565b9050919050565b5f6040820190506121d85f830185611bd6565b6121e56020830184611bd6565b9392505050565b7f496e73756666696369656e7420416c6c6f77616e6365000000000000000000005f82015250565b5f612220601683611ad8565b915061222b826121ec565b602082019050919050565b5f6020820190508181035f83015261224d81612214565b9050919050565b7f4279746520617272617920746f6f2073686f72740000000000000000000000005f82015250565b5f612288601483611ad8565b915061229382612254565b602082019050919050565b5f6020820190508181035f8301526122b58161227c565b9050919050565b7f436f6e74726163742069732050617573656400000000000000000000000000005f82015250565b5f6122f0601283611ad8565b91506122fb826122bc565b602082019050919050565b5f6020820190508181035f83015261231d816122e4565b9050919050565b7f4e487b71000000000000000000000000000000000000000000000000000000005f52601160045260245ffd5b5f61235b82611a1f565b915061236683611a1f565b9250828201905067ffffffffffffffff81111561238657612385612324565b5b92915050565b7f4e6f6e6365204f766572666c6f770000000000000000000000000000000000005f82015250565b5f6123c0600e83611ad8565b91506123cb8261238c565b602082019050919050565b5f6020820190508181035f8301526123ed816123b4565b9050919050565b5f81905092915050565b5f61240983856123f4565b9350612416838584611cae565b82840190509392505050565b5f61242e8284866123fe565b91508190509392505050565b7f4e487b71000000000000000000000000000000000000000000000000000000005f52602260045260245ffd5b5f600282049050600182168061247e57607f821691505b6020821081036124915761249061243a565b5b50919050565b5f819050815f5260205f209050919050565b5f6020601f8301049050919050565b5f82821b905092915050565b5f600883026124f37fffffffffffffffffffffffffffffffffffffffffffffffffffffffffffffffff826124b8565b6124fd86836124b8565b95508019841693508086168417925050509392505050565b5f61252f61252a61252584611b78565b611a5a565b611b78565b9050919050565b5f819050919050565b61254883612515565b61255c61255482612536565b8484546124c4565b825550505050565b5f90565b612570612564565b61257b81848461253f565b505050565b5b8181101561259e576125935f82612568565b600181019050612581565b5050565b601f8211156125e3576125b481612497565b6125bd846124a9565b810160208510156125cc578190505b6125e06125d8856124a9565b830182612580565b50505b505050565b5f82821c905092915050565b5f6126035f19846008026125e8565b1980831691505092915050565b5f61261b83836125f4565b9150826002028217905092915050565b61263482611f9f565b67ffffffffffffffff81111561264d5761264c611c06565b5b6126578254612467565b6126628282856125a2565b5f60209050601f831160018114612693575f8415612681578287015190505b61268b8582612610565b8655506126f2565b601f1984166126a186612497565b5f5b828110156126c8578489015182556001820191506020850194506020810190506126a3565b868310156126e557848901516126e1601f8916826125f4565b8355505b6001600288020188555050505b505050505050565b5f60208201905061270d5f83018461202b565b92915050565b7f5472616e73616374696f6e20616c7265616479206578697374730000000000005f82015250565b5f612747601a83611ad8565b915061275282612713565b602082019050919050565b5f6020820190508181035f8301526127748161273b565b9050919050565b7f416d6f756e74206d7573742062652067726561746572207468616e20300000005f82015250565b5f6127af601d83611ad8565b91506127ba8261277b565b602082019050919050565b5f6020820190508181035f8301526127dc816127a3565b9050919050565b7f46726f6d2041646472657373206d7573742062652032302062797465730000005f82015250565b5f612817601d83611ad8565b9150612822826127e3565b602082019050919050565b5f6020820190508181035f8301526128448161280b565b9050919050565b7f546f2041646472657373206d75737420626520333220627974657300000000005f82015250565b5f61287f601b83611ad8565b915061288a8261284b565b602082019050919050565b5f6020820190508181035f8301526128ac81612873565b9050919050565b5f6060820190506128c65f830186611bd6565b6128d36020830185611bd6565b6128e0604083018461203a565b949350505050565b5f8115159050919050565b6128fc816128e8565b8114612906575f80fd5b50565b5f81519050612917816128f3565b92915050565b5f6020828403121561293257612931611992565b5b5f61293f84828501612909565b91505092915050565b5f60408201905061295b5f830185611bd6565b612968602083018461203a565b939250505056fea2646970667358221220189daa2077c32cdc6670a054a7147d7a51d330465a3fdb46ecd81a77c7c767f864736f6c63430008150033",
  "immutableReferences": {},
  "source": "// SPDX-License-Identifier: UNLICENSED\npragma solidity ^0.8.9;\n\n// Uncomment this line to use console.log\n// import \"hardhat/console.sol\";\ninterface ITRC20 {\n    function totalSupply() external view returns (uint256);\n\n    function balanceOf(address account) external view returns (uint256);\n\n    function transfer(\n        address recipient,\n        uint256 amount\n    ) external returns (bool);\n\n    function allowance(\n        address owner,\n        address spender\n    ) external view returns (uint256);\n\n    function approve(address spender, uint256 amount) external returns (bool);\n\n    function transferFrom(\n        address sender,\n        address recipient,\n        uint256 amount\n    ) external returns (bool);\n\n    event Transfer(address indexed from, address indexed to, uint256 value);\n    event Approval(\n        address indexed owner,\n        address indexed spender,\n        uint256 value\n    );\n}\n\ncontract CrossChainTransfer {\n    mapping(address => uint64) public userTransactionNonce; //increments on commits and Transfers\n    address public admin;\n    address public incomingAdmin;\n    address public controller;\n    ITRC20 public usdtContractAddress;\n    string public constant ROLE_CONTROLLER = \"controller\";\n    mapping(bytes => Transaction) public transactions;\n    bool paused;\n\n    enum Chain {\n        D9,\n        Tron\n    }\n\n    enum TransactionType {\n        Commit,\n        Transfer\n    }\n\n    struct AddressType {\n        Chain Chain;\n        bytes userAddress;\n    }\n\n    struct Transaction {\n        TransactionType transactionType;\n        Chain fromChain;\n        AddressType fromAddress;\n        AddressType toAddress;\n        uint128 amount;\n        uint256 timestamp;\n    }\n    event CommitCreated(\n        bytes indexed transactionId,\n        bytes indexed fromAddress,\n        bytes indexed toAddress,\n        uint128 amount\n    );\n\n    event TransferCompleted(\n        bytes indexed transactionId,\n        bytes indexed fromAddress,\n        bytes indexed toAddress,\n        uint128 amount\n    );\n\n    constructor(address usdtContract) payable {\n        controller = msg.sender;\n        usdtContractAddress = ITRC20(usdtContract);\n        paused = false;\n    }\n\n    modifier onlyCallablyBy(address account) {\n        require(msg.sender == account, \"Not Callable by User\");\n        _;\n    }\n\n    modifier whenNotPaused() {\n        require(!paused, \"Contract is Paused\");\n        _;\n    }\n\n    function getCurrentNonce(address userAddress) public view returns (uint64) {\n        return userTransactionNonce[userAddress];\n    }\n\n    function createCommitTransaction(\n        bytes calldata transactionId,\n        bytes calldata fromAddress,\n        bytes calldata toAddress,\n        uint128 amount\n    ) public whenNotPaused onlyCallablyBy(controller) {\n        ensureUniqueTransaction(transactionId);\n        require(\n            userTransactionNonce[msg.sender] + 1 >\n                userTransactionNonce[msg.sender],\n            \"Nonce Overflow\"\n        );\n        validateCommit(fromAddress, toAddress, amount);\n\n        transactions[transactionId] = Transaction(\n            TransactionType.Commit,\n            Chain.Tron,\n            AddressType(Chain.Tron, fromAddress),\n            AddressType(Chain.D9, toAddress),\n            amount,\n            block.timestamp\n        );\n        address userAddress = dynamicBytesToAddress(fromAddress);\n        transferUsdtFromUser(userAddress, amount);\n        userTransactionNonce[msg.sender] += 1;\n        emit CommitCreated(transactionId, fromAddress, toAddress, amount);\n    }\n\n    function createTransferTransaction(\n        bytes calldata transactionId,\n        bytes calldata fromAddress,\n        bytes calldata toAddress,\n        uint128 amount\n    ) public whenNotPaused onlyCallablyBy(controller) {\n        ensureUniqueTransaction(transactionId);\n        require(\n            userTransactionNonce[msg.sender] + 1 >\n                userTransactionNonce[msg.sender],\n            \"Nonce Overflow\"\n        );\n\n        transactions[transactionId] = Transaction(\n            TransactionType.Transfer,\n            Chain.Tron,\n            AddressType(Chain.Tron, fromAddress),\n            AddressType(Chain.D9, toAddress),\n            amount,\n            block.timestamp\n        );\n\n        transferUsdtToUser(dynamicBytesToAddress(toAddress), amount);\n        userTransactionNonce[msg.sender] += 1;\n        emit TransferCompleted(transactionId, fromAddress, toAddress, amount);\n    }\n\n    function dynamicBytesToAddress(\n        bytes memory b\n    ) public pure returns (address) {\n        require(b.length >= 20, \"Byte array too short\");\n        uint160 addr;\n        assembly {\n            addr := mload(add(b, add(0x20, sub(mload(b), 20))))\n        }\n        return address(addr);\n    }\n\n    function validateCommit(\n        bytes calldata fromAddress,\n        bytes calldata toAddress,\n        uint128 amount\n    ) internal view {\n        require(amount > 0, \"Amount must be greater than 0\");\n        require(\n            bytes(fromAddress).length >= 20,\n            \"From Address must be 20 bytes\"\n        );\n        require(bytes(toAddress).length == 32, \"To Address must be 32 bytes\");\n        checkAllowance(amount);\n        checkBalance(amount);\n    }\n\n    function transferUsdtFromUser(address userAddress, uint256 amount) private {\n        ITRC20(usdtContractAddress).transferFrom(\n            userAddress,\n            address(this),\n            amount\n        );\n    }\n\n    function transferUsdtToUser(address userAddress, uint256 amount) private {\n        ITRC20(usdtContractAddress).transfer(userAddress, amount);\n    }\n\n    function checkAllowance(uint256 amount) public view {\n        uint256 allowance = ITRC20(usdtContractAddress).allowance(\n            msg.sender,\n            address(this)\n        );\n        require(amount >= allowance, \"Insufficient Allowance\");\n    }\n\n    function checkBalance(uint256 amount) public view {\n        uint256 balance = ITRC20(usdtContractAddress).balanceOf(msg.sender);\n        require(amount >= balance, \"Insufficient Balance\");\n    }\n\n    function ensureUniqueTransaction(\n        bytes calldata transactionId\n    ) internal view {\n        require(\n            transactions[transactionId].timestamp == 0,\n            \"Transaction already exists\"\n        );\n    }\n\n    function changeController(\n        address newController\n    ) public onlyCallablyBy(admin) {\n        controller = newController;\n    }\n\n    function pauseContract() public onlyCallablyBy(admin) {\n        paused = true;\n    }\n\n    function unpauseContract() public onlyCallablyBy(admin) {\n        paused = false;\n    }\n}\n",
  "sourcePath": "/Volumes/deeper_sink/projects/d9/contracts/tron-contracts/contracts/CrossChainTransfer.sol",
  "compiler": {
    "name": "solc",
    "version": "0.8.21+commit.d9974bed.Emscripten.clang"
  },
  "schemaVersion": "3.4.16",
  "updatedAt": "2023-12-05T05:50:05.490Z",
  "devdoc": {
    "kind": "dev",
    "methods": {},
    "version": 1
  },
  "userdoc": {
    "kind": "user",
    "methods": {},
    "version": 1
  }
}